{
  "address": "0x19B1054C5A5a7BcF4f64B325727cb39C8d946007",
  "abi": [
    {
      "inputs": [],
      "stateMutability": "nonpayable",
      "type": "constructor"
    },
    {
      "anonymous": false,
      "inputs": [
        {
          "indexed": true,
          "internalType": "address",
          "name": "erc721",
          "type": "address"
        },
        {
          "indexed": true,
          "internalType": "uint256",
          "name": "tokenId",
          "type": "uint256"
        },
        {
          "indexed": true,
          "internalType": "address",
          "name": "operator",
          "type": "address"
        }
      ],
      "name": "Executed",
      "type": "event"
    },
    {
      "anonymous": false,
      "inputs": [
        {
          "indexed": true,
          "internalType": "address",
          "name": "previousOwner",
          "type": "address"
        },
        {
          "indexed": true,
          "internalType": "address",
          "name": "newOwner",
          "type": "address"
        }
      ],
      "name": "OwnershipTransferred",
      "type": "event"
    },
    {
      "anonymous": false,
      "inputs": [
        {
          "indexed": true,
          "internalType": "address",
          "name": "erc721",
          "type": "address"
        },
        {
          "indexed": true,
          "internalType": "uint256",
          "name": "tokenId",
          "type": "uint256"
        },
        {
          "indexed": true,
          "internalType": "address",
          "name": "operator",
          "type": "address"
        }
      ],
      "name": "Sweep",
      "type": "event"
    },
    {
      "inputs": [
        {
          "internalType": "uint256",
          "name": "walletId",
          "type": "uint256"
        }
      ],
      "name": "computeAddress",
      "outputs": [
        {
          "internalType": "address",
          "name": "",
          "type": "address"
        }
      ],
      "stateMutability": "view",
      "type": "function"
    },
    {
      "inputs": [],
      "name": "counterfactualWalletInstance",
      "outputs": [
        {
          "internalType": "contract CounterfactualWallet",
          "name": "",
          "type": "address"
        }
      ],
      "stateMutability": "view",
      "type": "function"
    },
    {
      "inputs": [
        {
          "internalType": "address",
          "name": "erc721",
          "type": "address"
        },
        {
          "internalType": "uint256",
          "name": "tokenId",
          "type": "uint256"
        },
        {
          "components": [
            {
              "internalType": "address",
              "name": "to",
              "type": "address"
            },
            {
              "internalType": "uint256",
              "name": "value",
              "type": "uint256"
            },
            {
              "internalType": "bytes",
              "name": "data",
              "type": "bytes"
            }
          ],
          "internalType": "struct CounterfactualWallet.Call[]",
          "name": "calls",
          "type": "tuple[]"
        }
      ],
      "name": "executeCalls",
      "outputs": [
        {
          "internalType": "bytes[]",
          "name": "",
          "type": "bytes[]"
        }
      ],
      "stateMutability": "nonpayable",
      "type": "function"
    },
    {
      "inputs": [],
      "name": "owner",
      "outputs": [
        {
          "internalType": "address",
          "name": "",
          "type": "address"
        }
      ],
      "stateMutability": "view",
      "type": "function"
    },
    {
      "inputs": [],
      "name": "renounceOwnership",
      "outputs": [],
      "stateMutability": "nonpayable",
      "type": "function"
    },
    {
      "inputs": [
        {
          "internalType": "uint256",
          "name": "tokenId",
          "type": "uint256"
        },
        {
          "internalType": "address payable",
          "name": "to",
          "type": "address"
        },
        {
          "internalType": "contract IERC20[]",
          "name": "erc20s",
          "type": "address[]"
        },
        {
          "components": [
            {
              "internalType": "contract IERC721",
              "name": "token",
              "type": "address"
            },
            {
              "internalType": "uint256[]",
              "name": "tokenIds",
              "type": "uint256[]"
            }
          ],
          "internalType": "struct CounterfactualWallet.WithdrawERC721[]",
          "name": "erc721s",
          "type": "tuple[]"
        }
      ],
      "name": "sweep",
      "outputs": [],
      "stateMutability": "payable",
      "type": "function"
    },
    {
      "inputs": [
        {
          "internalType": "address",
          "name": "newOwner",
          "type": "address"
        }
      ],
      "name": "transferOwnership",
      "outputs": [],
      "stateMutability": "nonpayable",
      "type": "function"
    }
  ],
  "transactionHash": "0xe13a8aa34c9f968a0afa3e10cb3492500894b80c8b49de0ea126700faab9a923",
  "args": [],
  "numDeployments": 1,
  "solcInputHash": "e5afd6b053a125ac72edaa20ee7e4d68",
  "bytecode": "0x60a06040523480156200001157600080fd5b5062000032620000266200019860201b60201c565b620001a060201b60201c565b6040516200004090620002e1565b604051809103906000f0801580156200005d573d6000803e3d6000fd5b50600160006101000a81548173ffffffffffffffffffffffffffffffffffffffff021916908373ffffffffffffffffffffffffffffffffffffffff160217905550600160009054906101000a900473ffffffffffffffffffffffffffffffffffffffff1673ffffffffffffffffffffffffffffffffffffffff16638129fc1c6040518163ffffffff1660e01b8152600401600060405180830381600087803b1580156200010957600080fd5b505af11580156200011e573d6000803e3d6000fd5b505050506200015a600160009054906101000a900473ffffffffffffffffffffffffffffffffffffffff166200026460201b620006961760201c565b6002908051906020019062000171929190620002ef565b5060026040516200018391906200042a565b604051809103902060808181525050620004c8565b600033905090565b60008060009054906101000a900473ffffffffffffffffffffffffffffffffffffffff169050816000806101000a81548173ffffffffffffffffffffffffffffffffffffffff021916908373ffffffffffffffffffffffffffffffffffffffff1602179055508173ffffffffffffffffffffffffffffffffffffffff168173ffffffffffffffffffffffffffffffffffffffff167f8be0079c531659141344cd1fd0a4f28419497f9722a3daafe3b4186f6b6457e060405160405180910390a35050565b606060008260601b905060376040519250601f19601f60208301011683016040528083527f3d602d80600a3d3981f3363d3d373d3d3d363d7300000000000000000000000060208401528160348401527f5af43d82803e903d91602b57fd5bf3000000000000000000000000000000000060488401525050919050565b6119ad806200228283390190565b828054620002fd9062000463565b90600052602060002090601f0160209004810192826200032157600085556200036d565b82601f106200033c57805160ff19168380011785556200036d565b828001600101855582156200036d579182015b828111156200036c5782518255916020019190600101906200034f565b5b5090506200037c919062000380565b5090565b5b808211156200039b57600081600090555060010162000381565b5090565b60008154620003ae8162000463565b620003ba818662000458565b94506001821660008114620003d85760018114620003ea5762000421565b60ff1983168652818601935062000421565b620003f58562000443565b60005b838110156200041957815481890152600182019150602081019050620003f8565b838801955050505b50505092915050565b60006200043882846200039f565b915081905092915050565b60008190508160005260206000209050919050565b600081905092915050565b600060028204905060018216806200047c57607f821691505b6020821081141562000493576200049262000499565b5b50919050565b7f4e487b7100000000000000000000000000000000000000000000000000000000600052602260045260246000fd5b608051611d9e620004e4600039600061034a0152611d9e6000f3fe6080604052600436106100705760003560e01c80638a6d2cc81161004e5780638a6d2cc8146100d35780638da5cb5b14610110578063b41aee871461013b578063f2fde38b1461017857610070565b806330638bb4146100755780636a52ecd014610091578063715018a6146100bc575b600080fd5b61008f600480360381019061008a9190610ea4565b6101a1565b005b34801561009d57600080fd5b506100a66102f8565b6040516100b391906115a9565b60405180910390f35b3480156100c857600080fd5b506100d161031e565b005b3480156100df57600080fd5b506100fa60048036038101906100f59190610e7b565b610332565b60405161010791906114e4565b60405180910390f35b34801561011c57600080fd5b50610125610375565b60405161013291906114e4565b60405180910390f35b34801561014757600080fd5b50610162600480360381019061015d9190610dce565b61039e565b60405161016f919061151a565b60405180910390f35b34801561018457600080fd5b5061019f600480360381019061019a9190610d7c565b610612565b005b6101a9610713565b60006101b53388610791565b90508073ffffffffffffffffffffffffffffffffffffffff166365f6b2ed868686868b6040518663ffffffff1660e01b81526004016101f895949392919061153c565b600060405180830381600087803b15801561021257600080fd5b505af1158015610226573d6000803e3d6000fd5b505050508073ffffffffffffffffffffffffffffffffffffffff1662f55d9d876040518263ffffffff1660e01b815260040161026291906114ff565b600060405180830381600087803b15801561027c57600080fd5b505af1158015610290573d6000803e3d6000fd5b505050503373ffffffffffffffffffffffffffffffffffffffff16873373ffffffffffffffffffffffffffffffffffffffff167f8d71d334346acd8aade4cdca3af39a37fca2620cd870d28ccf94ae4ade61c8f360405160405180910390a450505050505050565b600160009054906101000a900473ffffffffffffffffffffffffffffffffffffffff1681565b610326610713565b610330600061089f565b565b600061036e610348610342610375565b84610963565b7f0000000000000000000000000000000000000000000000000000000000000000610996565b9050919050565b60008060009054906101000a900473ffffffffffffffffffffffffffffffffffffffff16905090565b606060008573ffffffffffffffffffffffffffffffffffffffff16636352211e866040518263ffffffff1660e01b81526004016103db9190611684565b60206040518083038186803b1580156103f357600080fd5b505afa158015610407573d6000803e3d6000fd5b505050506040513d601f19601f8201168201806040525081019061042b9190610da5565b90508073ffffffffffffffffffffffffffffffffffffffff163373ffffffffffffffffffffffffffffffffffffffff161461049b576040517f08c379a000000000000000000000000000000000000000000000000000000000815260040161049290611644565b60405180910390fd5b60006104a78787610791565b905060008173ffffffffffffffffffffffffffffffffffffffff16631726fa8187876040518363ffffffff1660e01b81526004016104e6929190611585565b600060405180830381600087803b15801561050057600080fd5b505af1158015610514573d6000803e3d6000fd5b505050506040513d6000823e3d601f19601f8201168201806040525081019061053d9190610e3a565b90508173ffffffffffffffffffffffffffffffffffffffff1662f55d9d846040518263ffffffff1660e01b815260040161057791906114ff565b600060405180830381600087803b15801561059157600080fd5b505af11580156105a5573d6000803e3d6000fd5b505050503373ffffffffffffffffffffffffffffffffffffffff16878973ffffffffffffffffffffffffffffffffffffffff167f52ba16c8b985eff690a9de92094bd7486f89340e06e385ffb26de9c6eea384dc60405160405180910390a4809350505050949350505050565b61061a610713565b600073ffffffffffffffffffffffffffffffffffffffff168173ffffffffffffffffffffffffffffffffffffffff16141561068a576040517f08c379a0000000000000000000000000000000000000000000000000000000008152600401610681906115e4565b60405180910390fd5b6106938161089f565b50565b606060008260601b905060376040519250601f19601f60208301011683016040528083527f3d602d80600a3d3981f3363d3d373d3d3d363d7300000000000000000000000060208401528160348401527f5af43d82803e903d91602b57fd5bf3000000000000000000000000000000000060488401525050919050565b61071b6109ab565b73ffffffffffffffffffffffffffffffffffffffff16610739610375565b73ffffffffffffffffffffffffffffffffffffffff161461078f576040517f08c379a000000000000000000000000000000000000000000000000000000000815260040161078690611624565b60405180910390fd5b565b60008061083360006107a38686610963565b600280546107b090611ab8565b80601f01602080910402602001604051908101604052809291908181526020018280546107dc90611ab8565b80156108295780601f106107fe57610100808354040283529160200191610829565b820191906000526020600020905b81548152906001019060200180831161080c57829003601f168201915b50505050506109b3565b90508073ffffffffffffffffffffffffffffffffffffffff16638129fc1c6040518163ffffffff1660e01b8152600401600060405180830381600087803b15801561087d57600080fd5b505af1158015610891573d6000803e3d6000fd5b505050508091505092915050565b60008060009054906101000a900473ffffffffffffffffffffffffffffffffffffffff169050816000806101000a81548173ffffffffffffffffffffffffffffffffffffffff021916908373ffffffffffffffffffffffffffffffffffffffff1602179055508173ffffffffffffffffffffffffffffffffffffffff168173ffffffffffffffffffffffffffffffffffffffff167f8be0079c531659141344cd1fd0a4f28419497f9722a3daafe3b4186f6b6457e060405160405180910390a35050565b6000828260405160200161097892919061146a565b60405160208183030381529060405280519060200120905092915050565b60006109a3838330610ac4565b905092915050565b600033905090565b600080844710156109f9576040517f08c379a00000000000000000000000000000000000000000000000000000000081526004016109f090611664565b60405180910390fd5b600083511415610a3e576040517f08c379a0000000000000000000000000000000000000000000000000000000008152600401610a35906115c4565b60405180910390fd5b8383516020850187f59050600073ffffffffffffffffffffffffffffffffffffffff168173ffffffffffffffffffffffffffffffffffffffff161415610ab9576040517f08c379a0000000000000000000000000000000000000000000000000000000008152600401610ab090611604565b60405180910390fd5b809150509392505050565b60008060ff60f81b838686604051602001610ae29493929190611496565b6040516020818303038152906040528051906020012090508060001c9150509392505050565b6000610b1b610b16846116c4565b61169f565b90508083825260208201905082856020860282011115610b3a57600080fd5b60005b85811015610b8457815167ffffffffffffffff811115610b5c57600080fd5b808601610b698982610d13565b85526020850194506020840193505050600181019050610b3d565b5050509392505050565b6000610ba1610b9c846116f0565b61169f565b905082815260208101848484011115610bb957600080fd5b610bc4848285611a85565b509392505050565b600081359050610bdb81611cf5565b92915050565b600081519050610bf081611cf5565b92915050565b600081359050610c0581611d0c565b92915050565b600082601f830112610c1c57600080fd5b8151610c2c848260208601610b08565b91505092915050565b60008083601f840112610c4757600080fd5b8235905067ffffffffffffffff811115610c6057600080fd5b602083019150836020820283011115610c7857600080fd5b9250929050565b60008083601f840112610c9157600080fd5b8235905067ffffffffffffffff811115610caa57600080fd5b602083019150836020820283011115610cc257600080fd5b9250929050565b60008083601f840112610cdb57600080fd5b8235905067ffffffffffffffff811115610cf457600080fd5b602083019150836020820283011115610d0c57600080fd5b9250929050565b600082601f830112610d2457600080fd5b8151610d34848260208601610b8e565b91505092915050565b600081359050610d4c81611d23565b92915050565b600081359050610d6181611d3a565b92915050565b600081359050610d7681611d51565b92915050565b600060208284031215610d8e57600080fd5b6000610d9c84828501610bcc565b91505092915050565b600060208284031215610db757600080fd5b6000610dc584828501610be1565b91505092915050565b60008060008060608587031215610de457600080fd5b6000610df287828801610bcc565b9450506020610e0387828801610d67565b935050604085013567ffffffffffffffff811115610e2057600080fd5b610e2c87828801610c7f565b925092505092959194509250565b600060208284031215610e4c57600080fd5b600082015167ffffffffffffffff811115610e6657600080fd5b610e7284828501610c0b565b91505092915050565b600060208284031215610e8d57600080fd5b6000610e9b84828501610d67565b91505092915050565b60008060008060008060808789031215610ebd57600080fd5b6000610ecb89828a01610d67565b9650506020610edc89828a01610bf6565b955050604087013567ffffffffffffffff811115610ef957600080fd5b610f0589828a01610c35565b9450945050606087013567ffffffffffffffff811115610f2457600080fd5b610f3089828a01610cc9565b92509250509295509295509295565b6000610f4b8383611244565b905092915050565b6000610f5f838361128c565b60208301905092915050565b6000610f77838361137c565b905092915050565b6000610f8b83836113e6565b905092915050565b610f9c81611974565b82525050565b610fab81611962565b82525050565b610fba81611962565b82525050565b610fd1610fcc82611962565b611b1b565b82525050565b6000610fe28261174f565b610fec81856117aa565b935083602082028501610ffe85611721565b8060005b8581101561103a578484038952815161101b8582610f3f565b945061102683611765565b925060208a01995050600181019050611002565b50829750879550505050505092915050565b60006110588385611799565b935061106382611731565b8060005b8581101561109c5761107982846118d5565b6110838882610f53565b975061108e83611772565b925050600181019050611067565b5085925050509392505050565b60006110b583856117bb565b9350836020840285016110c78461173b565b8060005b8781101561110b5784840389526110e28284611903565b6110ec8582610f6b565b94506110f78361177f565b925060208a019950506001810190506110cb565b50829750879450505050509392505050565b600061112983856117cc565b93508360208402850161113b84611745565b8060005b8781101561117f5784840389526111568284611927565b6111608582610f7f565b945061116b8361178c565b925060208a0199505060018101905061113f565b50829750879450505050509392505050565b600061119d83856117dd565b93507f07ffffffffffffffffffffffffffffffffffffffffffffffffffffffffffffff8311156111cc57600080fd5b6020830292506111dd838584611a76565b82840190509392505050565b6111fa6111f582611986565b611b2d565b82525050565b61121161120c826119b2565b611b37565b82525050565b600061122383856117ee565b9350611230838584611a76565b61123983611bbb565b840190509392505050565b600061124f8261175a565b61125981856117ee565b9350611269818560208601611a85565b61127281611bbb565b840191505092915050565b61128681611a0a565b82525050565b61129581611a2e565b82525050565b6112a481611a52565b82525050565b60006112b76020836117ff565b91506112c282611bd9565b602082019050919050565b60006112da6026836117ff565b91506112e582611c02565b604082019050919050565b60006112fd6019836117ff565b915061130882611c51565b602082019050919050565b60006113206020836117ff565b915061132b82611c7a565b602082019050919050565b60006113436018836117ff565b915061134e82611ca3565b602082019050919050565b6000611366601d836117ff565b915061137182611ccc565b602082019050919050565b60006060830161138f6000840184611810565b61139c6000860182610fa2565b506113aa602084018461194b565b6113b76020860182611435565b506113c5604084018461187e565b85830360408701526113d8838284611217565b925050508091505092915050565b6000604083016113f960008401846118ec565b611406600086018261129b565b506114146020840184611827565b8583036020870152611427838284611191565b925050508091505092915050565b61143e81611a00565b82525050565b61144d81611a00565b82525050565b61146461145f82611a00565b611b53565b82525050565b60006114768285610fc0565b6014820191506114868284611453565b6020820191508190509392505050565b60006114a282876111e9565b6001820191506114b28286610fc0565b6014820191506114c28285611200565b6020820191506114d28284611200565b60208201915081905095945050505050565b60006020820190506114f96000830184610fb1565b92915050565b60006020820190506115146000830184610f93565b92915050565b600060208201905081810360008301526115348184610fd7565b905092915050565b6000606082019050818103600083015261155781878961104c565b9050818103602083015261156c81858761111d565b905061157b6040830184610f93565b9695505050505050565b600060208201905081810360008301526115a08184866110a9565b90509392505050565b60006020820190506115be600083018461127d565b92915050565b600060208201905081810360008301526115dd816112aa565b9050919050565b600060208201905081810360008301526115fd816112cd565b9050919050565b6000602082019050818103600083015261161d816112f0565b9050919050565b6000602082019050818103600083015261163d81611313565b9050919050565b6000602082019050818103600083015261165d81611336565b9050919050565b6000602082019050818103600083015261167d81611359565b9050919050565b60006020820190506116996000830184611444565b92915050565b60006116a96116ba565b90506116b58282611aea565b919050565b6000604051905090565b600067ffffffffffffffff8211156116df576116de611b8c565b5b602082029050602081019050919050565b600067ffffffffffffffff82111561170b5761170a611b8c565b5b61171482611bbb565b9050602081019050919050565b6000819050602082019050919050565b6000819050919050565b6000819050919050565b6000819050919050565b600081519050919050565b600081519050919050565b6000602082019050919050565b6000602082019050919050565b6000602082019050919050565b6000602082019050919050565b600082825260208201905092915050565b600082825260208201905092915050565b600082825260208201905092915050565b600082825260208201905092915050565b600082825260208201905092915050565b600082825260208201905092915050565b600082825260208201905092915050565b600061181f6020840184610bcc565b905092915050565b6000808335600160200384360303811261184057600080fd5b83810192508235915060208301925067ffffffffffffffff82111561186457600080fd5b60208202360384131561187657600080fd5b509250929050565b6000808335600160200384360303811261189757600080fd5b83810192508235915060208301925067ffffffffffffffff8211156118bb57600080fd5b6001820236038413156118cd57600080fd5b509250929050565b60006118e46020840184610d3d565b905092915050565b60006118fb6020840184610d52565b905092915050565b60008235600160600383360303811261191b57600080fd5b82810191505092915050565b60008235600160400383360303811261193f57600080fd5b82810191505092915050565b600061195a6020840184610d67565b905092915050565b600061196d826119e0565b9050919050565b600061197f826119e0565b9050919050565b60007fff0000000000000000000000000000000000000000000000000000000000000082169050919050565b6000819050919050565b60006119c782611962565b9050919050565b60006119d982611962565b9050919050565b600073ffffffffffffffffffffffffffffffffffffffff82169050919050565b6000819050919050565b6000611a1582611a1c565b9050919050565b6000611a27826119e0565b9050919050565b6000611a3982611a40565b9050919050565b6000611a4b826119e0565b9050919050565b6000611a5d82611a64565b9050919050565b6000611a6f826119e0565b9050919050565b82818337600083830152505050565b60005b83811015611aa3578082015181840152602081019050611a88565b83811115611ab2576000848401525b50505050565b60006002820490506001821680611ad057607f821691505b60208210811415611ae457611ae3611b5d565b5b50919050565b611af382611bbb565b810181811067ffffffffffffffff82111715611b1257611b11611b8c565b5b80604052505050565b6000611b2682611b41565b9050919050565b6000819050919050565b6000819050919050565b6000611b4c82611bcc565b9050919050565b6000819050919050565b7f4e487b7100000000000000000000000000000000000000000000000000000000600052602260045260246000fd5b7f4e487b7100000000000000000000000000000000000000000000000000000000600052604160045260246000fd5b6000601f19601f8301169050919050565b60008160601b9050919050565b7f437265617465323a2062797465636f6465206c656e677468206973207a65726f600082015250565b7f4f776e61626c653a206e6577206f776e657220697320746865207a65726f206160008201527f6464726573730000000000000000000000000000000000000000000000000000602082015250565b7f437265617465323a204661696c6564206f6e206465706c6f7900000000000000600082015250565b7f4f776e61626c653a2063616c6c6572206973206e6f7420746865206f776e6572600082015250565b7f434657436f6e74726f6c6c65722f6f6e6c792d6f776e65720000000000000000600082015250565b7f437265617465323a20696e73756666696369656e742062616c616e6365000000600082015250565b611cfe81611962565b8114611d0957600080fd5b50565b611d1581611974565b8114611d2057600080fd5b50565b611d2c816119bc565b8114611d3757600080fd5b50565b611d43816119ce565b8114611d4e57600080fd5b50565b611d5a81611a00565b8114611d6557600080fd5b5056fea26469706673582212206dc67207db1869a1b2e0e497ffea6d13c97b79149742c9b0a97ab6306c8de63564736f6c63430008040033608060405234801561001057600080fd5b5061198d806100206000396000f3fe608060405234801561001057600080fd5b506004361061004b5760003560e01c8062f55d9d146100505780631726fa811461006c57806365f6b2ed1461009c5780638129fc1c146100b8575b600080fd5b61006a60048036038101906100659190610fcf565b6100c2565b005b61008660048036038101906100819190611077565b61018d565b60405161009391906113d8565b60405180910390f35b6100b660048036038101906100b19190610ff8565b610459565b005b6100c061057a565b005b60008054906101000a900473ffffffffffffffffffffffffffffffffffffffff1673ffffffffffffffffffffffffffffffffffffffff163373ffffffffffffffffffffffffffffffffffffffff1614610150576040517f08c379a00000000000000000000000000000000000000000000000000000000081526004016101479061143e565b60405180910390fd5b6000806101000a81549073ffffffffffffffffffffffffffffffffffffffff02191690558073ffffffffffffffffffffffffffffffffffffffff16ff5b606060008054906101000a900473ffffffffffffffffffffffffffffffffffffffff1673ffffffffffffffffffffffffffffffffffffffff163373ffffffffffffffffffffffffffffffffffffffff161461021d576040517f08c379a00000000000000000000000000000000000000000000000000000000081526004016102149061143e565b60405180910390fd5b60008383905067ffffffffffffffff811115610262577f4e487b7100000000000000000000000000000000000000000000000000000000600052604160045260246000fd5b60405190808252806020026020018201604052801561029557816020015b60608152602001906001900390816102805790505b50905060005b8484905081101561044e576103f78585838181106102e2577f4e487b7100000000000000000000000000000000000000000000000000000000600052603260045260246000fd5b90506020028101906102f49190611510565b60000160208101906103069190610fa6565b86868481811061033f577f4e487b7100000000000000000000000000000000000000000000000000000000600052603260045260246000fd5b90506020028101906103519190611510565b6020013587878581811061038e577f4e487b7100000000000000000000000000000000000000000000000000000000600052603260045260246000fd5b90506020028101906103a09190611510565b80604001906103af91906114b9565b8080601f016020809104026020016040519081016040528093929190818152602001838380828437600081840152601f19601f8201169050808301925050505050505061064b565b828281518110610430577f4e487b7100000000000000000000000000000000000000000000000000000000600052603260045260246000fd5b6020026020010181905250808061044690611774565b91505061029b565b508091505092915050565b60008054906101000a900473ffffffffffffffffffffffffffffffffffffffff1673ffffffffffffffffffffffffffffffffffffffff163373ffffffffffffffffffffffffffffffffffffffff16146104e7576040517f08c379a00000000000000000000000000000000000000000000000000000000081526004016104de9061143e565b60405180910390fd5b600073ffffffffffffffffffffffffffffffffffffffff168173ffffffffffffffffffffffffffffffffffffffff161415610557576040517f08c379a000000000000000000000000000000000000000000000000000000000815260040161054e9061145e565b60405180910390fd5b610561838261070d565b61056b828261095b565b6105758147610bf0565b505050565b600073ffffffffffffffffffffffffffffffffffffffff1660008054906101000a900473ffffffffffffffffffffffffffffffffffffffff1673ffffffffffffffffffffffffffffffffffffffff1614610609576040517f08c379a00000000000000000000000000000000000000000000000000000000081526004016106009061147e565b60405180910390fd5b336000806101000a81548173ffffffffffffffffffffffffffffffffffffffff021916908373ffffffffffffffffffffffffffffffffffffffff160217905550565b60606000808573ffffffffffffffffffffffffffffffffffffffff1685856040516106769190611346565b60006040518083038185875af1925050503d80600081146106b3576040519150601f19603f3d011682016040523d82523d6000602084013e6106b8565b606091505b5091509150818190610700576040517f08c379a00000000000000000000000000000000000000000000000000000000081526004016106f7919061141c565b60405180910390fd5b5080925050509392505050565b60005b8251811015610956576000838281518110610754577f4e487b7100000000000000000000000000000000000000000000000000000000600052603260045260246000fd5b602002602001015173ffffffffffffffffffffffffffffffffffffffff166370a08231306040518263ffffffff1660e01b8152600401610794919061135d565b60206040518083038186803b1580156107ac57600080fd5b505afa1580156107c0573d6000803e3d6000fd5b505050506040513d601f19601f820116820180604052508101906107e491906110e5565b905083828151811061081f577f4e487b7100000000000000000000000000000000000000000000000000000000600052603260045260246000fd5b602002602001015173ffffffffffffffffffffffffffffffffffffffff1663a9059cbb84836040518363ffffffff1660e01b81526004016108619291906113af565b602060405180830381600087803b15801561087b57600080fd5b505af115801561088f573d6000803e3d6000fd5b505050506040513d601f19601f820116820180604052508101906108b391906110bc565b508382815181106108ed577f4e487b7100000000000000000000000000000000000000000000000000000000600052603260045260246000fd5b602002602001015173ffffffffffffffffffffffffffffffffffffffff167f93295a03b599aa244f344512a042ed4a3cd191df56cc1454674b0bd8593777498260405161093a919061149e565b60405180910390a250808061094e90611774565b915050610710565b505050565b60005b8251811015610beb5760005b8382815181106109a3577f4e487b7100000000000000000000000000000000000000000000000000000000600052603260045260246000fd5b60200260200101516020015151811015610b01578382815181106109f0577f4e487b7100000000000000000000000000000000000000000000000000000000600052603260045260246000fd5b60200260200101516000015173ffffffffffffffffffffffffffffffffffffffff166323b872dd3085878681518110610a52577f4e487b7100000000000000000000000000000000000000000000000000000000600052603260045260246000fd5b6020026020010151602001518581518110610a96577f4e487b7100000000000000000000000000000000000000000000000000000000600052603260045260246000fd5b60200260200101516040518463ffffffff1660e01b8152600401610abc93929190611378565b600060405180830381600087803b158015610ad657600080fd5b505af1158015610aea573d6000803e3d6000fd5b505050508080610af990611774565b91505061096a565b50828181518110610b3b577f4e487b7100000000000000000000000000000000000000000000000000000000600052603260045260246000fd5b60200260200101516000015173ffffffffffffffffffffffffffffffffffffffff167f7c0114b67370be67d9c25c0fae9f991d289ce990616efebe475d8447764b3649848381518110610bb7577f4e487b7100000000000000000000000000000000000000000000000000000000600052603260045260246000fd5b602002602001015160200151604051610bd091906113fa565b60405180910390a28080610be390611774565b91505061095e565b505050565b8173ffffffffffffffffffffffffffffffffffffffff166108fc829081150290604051600060405180830381858888f19350505050158015610c36573d6000803e3d6000fd5b508173ffffffffffffffffffffffffffffffffffffffff167ff35d7b6a86398c5aabcd316353d6f069dbc1be6fa0ab49d809bfbf6d96f5557582604051610c7d919061149e565b60405180910390a25050565b6000610c9c610c9784611559565b611534565b90508083825260208201905082856020860282011115610cbb57600080fd5b60005b85811015610ceb5781610cd18882610eee565b845260208401935060208301925050600181019050610cbe565b5050509392505050565b6000610d08610d0384611585565b611534565b90508083825260208201905082856020860282011115610d2757600080fd5b60005b85811015610d7157813567ffffffffffffffff811115610d4957600080fd5b808601610d568982610f18565b85526020850194506020840193505050600181019050610d2a565b5050509392505050565b6000610d8e610d89846115b1565b611534565b90508083825260208201905082856020860282011115610dad57600080fd5b60005b85811015610ddd5781610dc38882610f7c565b845260208401935060208301925050600181019050610db0565b5050509392505050565b600081359050610df6816118cd565b92915050565b600081359050610e0b816118e4565b92915050565b600082601f830112610e2257600080fd5b8135610e32848260208601610c89565b91505092915050565b60008083601f840112610e4d57600080fd5b8235905067ffffffffffffffff811115610e6657600080fd5b602083019150836020820283011115610e7e57600080fd5b9250929050565b600082601f830112610e9657600080fd5b8135610ea6848260208601610cf5565b91505092915050565b600082601f830112610ec057600080fd5b8135610ed0848260208601610d7b565b91505092915050565b600081519050610ee8816118fb565b92915050565b600081359050610efd81611912565b92915050565b600081359050610f1281611929565b92915050565b600060408284031215610f2a57600080fd5b610f346040611534565b90506000610f4484828501610f03565b600083015250602082013567ffffffffffffffff811115610f6457600080fd5b610f7084828501610eaf565b60208301525092915050565b600081359050610f8b81611940565b92915050565b600081519050610fa081611940565b92915050565b600060208284031215610fb857600080fd5b6000610fc684828501610de7565b91505092915050565b600060208284031215610fe157600080fd5b6000610fef84828501610dfc565b91505092915050565b60008060006060848603121561100d57600080fd5b600084013567ffffffffffffffff81111561102757600080fd5b61103386828701610e11565b935050602084013567ffffffffffffffff81111561105057600080fd5b61105c86828701610e85565b925050604061106d86828701610dfc565b9150509250925092565b6000806020838503121561108a57600080fd5b600083013567ffffffffffffffff8111156110a457600080fd5b6110b085828601610e3b565b92509250509250929050565b6000602082840312156110ce57600080fd5b60006110dc84828501610ed9565b91505092915050565b6000602082840312156110f757600080fd5b600061110584828501610f91565b91505092915050565b600061111a838361121c565b905092915050565b600061112e8383611328565b60208301905092915050565b61114381611692565b82525050565b6000611154826115fd565b61115e8185611643565b935083602082028501611170856115dd565b8060005b858110156111ac578484038952815161118d858261110e565b945061119883611629565b925060208a01995050600181019050611174565b50829750879550505050505092915050565b60006111c982611608565b6111d38185611654565b93506111de836115ed565b8060005b8381101561120f5781516111f68882611122565b975061120183611636565b9250506001810190506111e2565b5085935050505092915050565b600061122782611613565b6112318185611665565b9350611241818560208601611710565b61124a8161181b565b840191505092915050565b600061126082611613565b61126a8185611676565b935061127a818560208601611710565b80840191505092915050565b60006112918261161e565b61129b8185611681565b93506112ab818560208601611710565b6112b48161181b565b840191505092915050565b60006112cc601f83611681565b91506112d78261182c565b602082019050919050565b60006112ef602083611681565b91506112fa82611855565b602082019050919050565b6000611312602183611681565b915061131d8261187e565b604082019050919050565b61133181611706565b82525050565b61134081611706565b82525050565b60006113528284611255565b915081905092915050565b6000602082019050611372600083018461113a565b92915050565b600060608201905061138d600083018661113a565b61139a602083018561113a565b6113a76040830184611337565b949350505050565b60006040820190506113c4600083018561113a565b6113d16020830184611337565b9392505050565b600060208201905081810360008301526113f28184611149565b905092915050565b6000602082019050818103600083015261141481846111be565b905092915050565b600060208201905081810360008301526114368184611286565b905092915050565b60006020820190508181036000830152611457816112bf565b9050919050565b60006020820190508181036000830152611477816112e2565b9050919050565b6000602082019050818103600083015261149781611305565b9050919050565b60006020820190506114b36000830184611337565b92915050565b600080833560016020038436030381126114d257600080fd5b80840192508235915067ffffffffffffffff8211156114f057600080fd5b60208301925060018202360383131561150857600080fd5b509250929050565b60008235600160600383360303811261152857600080fd5b80830191505092915050565b600061153e61154f565b905061154a8282611743565b919050565b6000604051905090565b600067ffffffffffffffff821115611574576115736117ec565b5b602082029050602081019050919050565b600067ffffffffffffffff8211156115a05761159f6117ec565b5b602082029050602081019050919050565b600067ffffffffffffffff8211156115cc576115cb6117ec565b5b602082029050602081019050919050565b6000819050602082019050919050565b6000819050602082019050919050565b600081519050919050565b600081519050919050565b600081519050919050565b600081519050919050565b6000602082019050919050565b6000602082019050919050565b600082825260208201905092915050565b600082825260208201905092915050565b600082825260208201905092915050565b600081905092915050565b600082825260208201905092915050565b600061169d826116e6565b9050919050565b60006116af826116e6565b9050919050565b60008115159050919050565b60006116cd82611692565b9050919050565b60006116df82611692565b9050919050565b600073ffffffffffffffffffffffffffffffffffffffff82169050919050565b6000819050919050565b60005b8381101561172e578082015181840152602081019050611713565b8381111561173d576000848401525b50505050565b61174c8261181b565b810181811067ffffffffffffffff8211171561176b5761176a6117ec565b5b80604052505050565b600061177f82611706565b91507fffffffffffffffffffffffffffffffffffffffffffffffffffffffffffffffff8214156117b2576117b16117bd565b5b600182019050919050565b7f4e487b7100000000000000000000000000000000000000000000000000000000600052601160045260246000fd5b7f4e487b7100000000000000000000000000000000000000000000000000000000600052604160045260246000fd5b6000601f19601f8301169050919050565b7f436f756e7465726661637475616c57616c6c65742f6f6e6c792d6f776e657200600082015250565b7f436f756e7465726661637475616c57616c6c65742f6e6f6e2d7a65726f2d746f600082015250565b7f436f756e7465726661637475616c57616c6c65742f616c72656164792d696e6960008201527f7400000000000000000000000000000000000000000000000000000000000000602082015250565b6118d681611692565b81146118e157600080fd5b50565b6118ed816116a4565b81146118f857600080fd5b50565b611904816116b6565b811461190f57600080fd5b50565b61191b816116c2565b811461192657600080fd5b50565b611932816116d4565b811461193d57600080fd5b50565b61194981611706565b811461195457600080fd5b5056fea2646970667358221220a7ad42364f1cd82de764e3722a4a72c42ea37502652039cc6a816f5dc6fb0c9464736f6c63430008040033",
  "devdoc": {
    "kind": "dev",
    "methods": {
      "computeAddress(uint256)": {
        "details": "The contract will not exist yet, so the address will have no code.",
        "params": {
          "walletId": "The walletId (\"HD wallet\" nonce)"
        },
        "returns": {
          "_0": "The address of the Counterfactual Wallet"
        }
      },
      "constructor": {
        "details": "Creates a new CounterfactualWallet instance and an associated minimal proxy."
      },
      "executeCalls(address,uint256,(address,uint256,bytes)[])": {
        "details": "The wallet will be counterfactually created, calls executed, then the contract destroyed.",
        "params": {
          "calls": "The array of call structs that define that target, amount of ether, and data.",
          "erc721": "The ERC721 address",
          "tokenId": "The ERC721 token id"
        },
        "returns": {
          "_0": "The array of call return values."
        }
      },
      "owner()": {
        "details": "Returns the address of the current owner."
      },
      "renounceOwnership()": {
        "details": "Leaves the contract without owner. It will not be possible to call `onlyOwner` functions anymore. Can only be called by the current owner. NOTE: Renouncing ownership will leave the contract without an owner, thereby removing any functionality that is only available to the owner."
      },
      "sweep(uint256,address,address[],(address,uint256[])[])": {
        "details": "A counterfactual wallet contract will be counterfactually created, tokens transferred to the owner, then destroyed.",
        "params": {
          "erc20s": "An array of ERC20 tokens whose entire balance should be transferred",
          "erc721s": "An array of structs defining ERC721 tokens that should be transferred",
          "tokenId": "The ERC721 token id"
        }
      },
      "transferOwnership(address)": {
        "details": "Transfers ownership of the contract to a new account (`newOwner`). Can only be called by the current owner."
      }
    },
    "title": "Allows users to plunder an address associated with an ERC721",
    "version": 1
  },
  "userdoc": {
    "events": {
      "Executed(address,uint256,address)": {
        "notice": "Emitted when a wallet is executed"
      },
      "Sweep(address,uint256,address)": {
        "notice": "Emitted when a wallet is swept"
      }
    },
    "kind": "user",
    "methods": {
      "computeAddress(uint256)": {
        "notice": "Computes the Counterfactual Wallet address for an address."
      },
      "constructor": {
        "notice": "Constructs a new controller."
      },
      "counterfactualWalletInstance()": {
        "notice": "The instance to which all proxies will point"
      },
      "executeCalls(address,uint256,(address,uint256,bytes)[])": {
        "notice": "Allows the owner of an ERC721 to execute abitrary calls on behalf of the associated counterfactual wallet."
      },
      "sweep(uint256,address,address[],(address,uint256[])[])": {
        "notice": "Allows owner to transfer all given tokens in a counterfactual wallet to a destination address"
      }
    },
    "notice": "Counterfactually instantiates a wallet at an address unique to an ERC721 token.  The address for an ERC721 token can be computed and later plundered by transferring token balances to the ERC721 owner.",
    "version": 1
  },
  "storageLayout": {
    "storage": [
      {
        "astId": 661,
        "contract": "contracts/CounterfactualWalletController.sol:CounterfactualWalletController",
        "label": "_owner",
        "offset": 0,
        "slot": "0",
        "type": "t_address"
      },
      {
        "astId": 3304,
        "contract": "contracts/CounterfactualWalletController.sol:CounterfactualWalletController",
        "label": "counterfactualWalletInstance",
        "offset": 0,
        "slot": "1",
        "type": "t_contract(CounterfactualWallet)3290"
      },
      {
        "astId": 3308,
        "contract": "contracts/CounterfactualWalletController.sol:CounterfactualWalletController",
        "label": "_counterfactualWalletBytecode",
        "offset": 0,
        "slot": "2",
        "type": "t_bytes_storage"
      }
    ],
    "types": {
      "t_address": {
        "encoding": "inplace",
        "label": "address",
        "numberOfBytes": "20"
      },
      "t_bytes_storage": {
        "encoding": "bytes",
        "label": "bytes",
        "numberOfBytes": "32"
      },
      "t_contract(CounterfactualWallet)3290": {
        "encoding": "inplace",
        "label": "contract CounterfactualWallet",
        "numberOfBytes": "20"
      }
    }
  }
}